{
  "contractName": "Articles",
  "abi": [
    {
      "constant": true,
      "inputs": [],
      "name": "articleCount",
      "outputs": [
        {
          "name": "",
          "type": "uint256"
        }
      ],
      "payable": false,
      "stateMutability": "view",
      "type": "function"
    },
    {
      "constant": true,
      "inputs": [
        {
          "name": "",
          "type": "uint256"
        }
      ],
      "name": "articles",
      "outputs": [
        {
          "name": "id",
          "type": "uint256"
        },
        {
          "name": "articles",
          "type": "string"
        },
        {
          "name": "author",
          "type": "address"
        },
        {
          "name": "likes",
          "type": "uint256"
        },
        {
          "name": "totalEarned",
          "type": "uint256"
        },
        {
          "name": "totalPayers",
          "type": "uint256"
        }
      ],
      "payable": false,
      "stateMutability": "view",
      "type": "function"
    },
    {
      "anonymous": false,
      "inputs": [
        {
          "indexed": false,
          "name": "id",
          "type": "uint256"
        },
        {
          "indexed": false,
          "name": "articles",
          "type": "string"
        },
        {
          "indexed": false,
          "name": "author",
          "type": "address"
        },
        {
          "indexed": false,
          "name": "likes",
          "type": "uint256"
        },
        {
          "indexed": false,
          "name": "likers",
          "type": "address[]"
        },
        {
          "indexed": false,
          "name": "totalEarned",
          "type": "uint256"
        },
        {
          "indexed": false,
          "name": "payers",
          "type": "address[]"
        },
        {
          "indexed": false,
          "name": "payed",
          "type": "uint256[]"
        },
        {
          "indexed": false,
          "name": "totalPayers",
          "type": "uint256"
        }
      ],
      "name": "articleCreated",
      "type": "event"
    },
    {
      "anonymous": false,
      "inputs": [
        {
          "indexed": false,
          "name": "id",
          "type": "uint256"
        },
        {
          "indexed": false,
          "name": "articles",
          "type": "string"
        },
        {
          "indexed": false,
          "name": "author",
          "type": "address"
        },
        {
          "indexed": false,
          "name": "likes",
          "type": "uint256"
        },
        {
          "indexed": false,
          "name": "likers",
          "type": "address[]"
        },
        {
          "indexed": false,
          "name": "totalEarned",
          "type": "uint256"
        },
        {
          "indexed": false,
          "name": "payers",
          "type": "address[]"
        },
        {
          "indexed": false,
          "name": "payed",
          "type": "uint256[]"
        },
        {
          "indexed": false,
          "name": "totalPayers",
          "type": "uint256"
        }
      ],
      "name": "articleLiked",
      "type": "event"
    },
    {
      "anonymous": false,
      "inputs": [
        {
          "indexed": false,
          "name": "id",
          "type": "uint256"
        },
        {
          "indexed": false,
          "name": "articles",
          "type": "string"
        },
        {
          "indexed": false,
          "name": "author",
          "type": "address"
        },
        {
          "indexed": false,
          "name": "likes",
          "type": "uint256"
        },
        {
          "indexed": false,
          "name": "likers",
          "type": "address[]"
        },
        {
          "indexed": false,
          "name": "totalEarned",
          "type": "uint256"
        },
        {
          "indexed": false,
          "name": "payers",
          "type": "address[]"
        },
        {
          "indexed": false,
          "name": "payed",
          "type": "uint256[]"
        },
        {
          "indexed": false,
          "name": "totalPayers",
          "type": "uint256"
        }
      ],
      "name": "articlePayed",
      "type": "event"
    },
    {
      "constant": false,
      "inputs": [
        {
          "name": "_article",
          "type": "string"
        }
      ],
      "name": "createArticle",
      "outputs": [],
      "payable": false,
      "stateMutability": "nonpayable",
      "type": "function"
    },
    {
      "constant": false,
      "inputs": [
        {
          "name": "_id",
          "type": "uint256"
        }
      ],
      "name": "likeArticle",
      "outputs": [],
      "payable": false,
      "stateMutability": "nonpayable",
      "type": "function"
    },
    {
      "constant": false,
      "inputs": [
        {
          "name": "_id",
          "type": "uint256"
        }
      ],
      "name": "payAuthor",
      "outputs": [],
      "payable": true,
      "stateMutability": "payable",
      "type": "function"
    }
  ],
  "bytecode": "0x60806040526000805534801561001457600080fd5b50611875806100246000396000f3fe60806040526004361061006d576000357c0100000000000000000000000000000000000000000000000000000000900463ffffffff16806319aa7c9a146100725780632c3d1589146100a0578063414e28b0146100db578063dc3e7bc614610106578063edcfafe6146101ce575b600080fd5b61009e6004803603602081101561008857600080fd5b81019080803590602001909291905050506102d1565b005b3480156100ac57600080fd5b506100d9600480360360208110156100c357600080fd5b81019080803590602001909291905050506109bd565b005b3480156100e757600080fd5b506100f0610ff5565b6040518082815260200191505060405180910390f35b34801561011257600080fd5b506101cc6004803603602081101561012957600080fd5b810190808035906020019064010000000081111561014657600080fd5b82018360208201111561015857600080fd5b8035906020019184600183028401116401000000008311171561017a57600080fd5b91908080601f016020809104026020016040519081016040528093929190818152602001838380828437600081840152601f19601f820116905080830192505050505050509192919290505050610ffb565b005b3480156101da57600080fd5b50610207600480360360208110156101f157600080fd5b8101908080359060200190929190505050611466565b60405180878152602001806020018673ffffffffffffffffffffffffffffffffffffffff1673ffffffffffffffffffffffffffffffffffffffff168152602001858152602001848152602001838152602001828103825287818151815260200191508051906020019080838360005b83811015610291578082015181840152602081019050610276565b50505050905090810190601f1680156102be5780820380516001836020036101000a031916815260200191505b5097505050505050505060405180910390f35b6000811180156102e357506000548111155b15156102ee57600080fd5b6102f661155a565b60016000838152602001908152602001600020610120604051908101604052908160008201548152602001600182018054600181600116156101000203166002900480601f0160208091040260200160405190810160405280929190818152602001828054600181600116156101000203166002900480156103b95780601f1061038e576101008083540402835291602001916103b9565b820191906000526020600020905b81548152906001019060200180831161039c57829003601f168201915b505050505081526020016002820160009054906101000a900473ffffffffffffffffffffffffffffffffffffffff1673ffffffffffffffffffffffffffffffffffffffff1673ffffffffffffffffffffffffffffffffffffffff16815260200160038201548152602001600482018054806020026020016040519081016040528092919081815260200182805480156104a757602002820191906000526020600020905b8160009054906101000a900473ffffffffffffffffffffffffffffffffffffffff1673ffffffffffffffffffffffffffffffffffffffff168152602001906001019080831161045d575b50505050508152602001600582015481526020016006820180548060200260200160405190810160405280929190818152602001828054801561053f57602002820191906000526020600020905b8160009054906101000a900473ffffffffffffffffffffffffffffffffffffffff1673ffffffffffffffffffffffffffffffffffffffff16815260200190600101908083116104f5575b505050505081526020016007820180548060200260200160405190810160405280929190818152602001828054801561059757602002820191906000526020600020905b815481526020019060010190808311610583575b5050505050815260200160088201548152505090503373ffffffffffffffffffffffffffffffffffffffff16816040015173ffffffffffffffffffffffffffffffffffffffff16141515156105eb57600080fd5b60606002826101000151016040519080825280602002602001820160405280156106245781602001602082028038833980820191505090505b50905060606002836101000151016040519080825280602002602001820160405280156106605781602001602082028038833980820191505090505b50905060008090505b836101000151811015610721578360c001518181518110151561068857fe5b9060200190602002015183828151811015156106a057fe5b9060200190602002019073ffffffffffffffffffffffffffffffffffffffff16908173ffffffffffffffffffffffffffffffffffffffff16815250508360e00151818151811015156106ee57fe5b90602001906020020151828281518110151561070657fe5b90602001906020020181815250508080600101915050610669565b50338284610100015181518110151561073657fe5b9060200190602002019073ffffffffffffffffffffffffffffffffffffffff16908173ffffffffffffffffffffffffffffffffffffffff1681525050348184610100015181518110151561078657fe5b9060200190602002018181525050818360c00181905250808360e001819052508261010001805180919060010181525050348360a00181815101915081815250507f072d0011e942e9c104fffb8feb5cc23e799b07a2ec22b80cc8854067008fbf78836000015184602001518560400151866060015187608001518860a001518960c001518a60e001518b6101000151604051808a8152602001806020018973ffffffffffffffffffffffffffffffffffffffff1673ffffffffffffffffffffffffffffffffffffffff16815260200188815260200180602001878152602001806020018060200186815260200185810385528d818151815260200191508051906020019080838360005b838110156108ac578082015181840152602081019050610891565b50505050905090810190601f1680156108d95780820380516001836020036101000a031916815260200191505b5085810384528a818151815260200191508051906020019060200280838360005b838110156109155780820151818401526020810190506108fa565b50505050905001858103835288818151815260200191508051906020019060200280838360005b8381101561095757808201518184015260208101905061093c565b50505050905001858103825287818151815260200191508051906020019060200280838360005b8381101561099957808201518184015260208101905061097e565b505050509050019d505050505050505050505050505060405180910390a150505050565b6000811180156109cf57506000548111155b15156109da57600080fd5b6109e261155a565b60016000838152602001908152602001600020610120604051908101604052908160008201548152602001600182018054600181600116156101000203166002900480601f016020809104026020016040519081016040528092919081815260200182805460018160011615610100020316600290048015610aa55780601f10610a7a57610100808354040283529160200191610aa5565b820191906000526020600020905b815481529060010190602001808311610a8857829003601f168201915b505050505081526020016002820160009054906101000a900473ffffffffffffffffffffffffffffffffffffffff1673ffffffffffffffffffffffffffffffffffffffff1673ffffffffffffffffffffffffffffffffffffffff1681526020016003820154815260200160048201805480602002602001604051908101604052809291908181526020018280548015610b9357602002820191906000526020600020905b8160009054906101000a900473ffffffffffffffffffffffffffffffffffffffff1673ffffffffffffffffffffffffffffffffffffffff1681526020019060010190808311610b49575b505050505081526020016005820154815260200160068201805480602002602001604051908101604052809291908181526020018280548015610c2b57602002820191906000526020600020905b8160009054906101000a900473ffffffffffffffffffffffffffffffffffffffff1673ffffffffffffffffffffffffffffffffffffffff1681526020019060010190808311610be1575b5050505050815260200160078201805480602002602001604051908101604052809291908181526020018280548015610c8357602002820191906000526020600020905b815481526020019060010190808311610c6f575b5050505050815260200160088201548152505090503373ffffffffffffffffffffffffffffffffffffffff16816040015173ffffffffffffffffffffffffffffffffffffffff1614151515610cd757600080fd5b60606002826060015101604051908082528060200260200182016040528015610d0f5781602001602082028038833980820191505090505b50905060008090505b8260600151811015610d9757826080015181815181101515610d3657fe5b906020019060200201518282815181101515610d4e57fe5b9060200190602002019073ffffffffffffffffffffffffffffffffffffffff16908173ffffffffffffffffffffffffffffffffffffffff16815250508080600101915050610d18565b5033818360600151815181101515610dab57fe5b9060200190602002019073ffffffffffffffffffffffffffffffffffffffff16908173ffffffffffffffffffffffffffffffffffffffff1681525050808260800181905250816060018051809190600101815250507f3305d6a0595cb642e7a8e5c353abb46141c9e7295f7bcfae8eb65cd4b29f4e76826000015183602001518460400151856060015186608001518760a001518860c001518960e001518a6101000151604051808a8152602001806020018973ffffffffffffffffffffffffffffffffffffffff1673ffffffffffffffffffffffffffffffffffffffff16815260200188815260200180602001878152602001806020018060200186815260200185810385528d818151815260200191508051906020019080838360005b83811015610ee5578082015181840152602081019050610eca565b50505050905090810190601f168015610f125780820380516001836020036101000a031916815260200191505b5085810384528a818151815260200191508051906020019060200280838360005b83811015610f4e578082015181840152602081019050610f33565b50505050905001858103835288818151815260200191508051906020019060200280838360005b83811015610f90578082015181840152602081019050610f75565b50505050905001858103825287818151815260200191508051906020019060200280838360005b83811015610fd2578082015181840152602081019050610fb7565b505050509050019d505050505050505050505050505060405180910390a1505050565b60005481565b6000815111151561100b57600080fd5b60008081548092919060010191905055506101206040519081016040528060005481526020018281526020013373ffffffffffffffffffffffffffffffffffffffff16815260200160008152602001600160405190808252806020026020018201604052801561108a5781602001602082028038833980820191505090505b5081526020016000815260200160016040519080825280602002602001820160405280156110c75781602001602082028038833980820191505090505b50815260200160016040519080825280602002602001820160405280156110fd5781602001602082028038833980820191505090505b508152602001600081525060016000805481526020019081526020016000206000820151816000015560208201518160010190805190602001906111429291906115bd565b5060408201518160020160006101000a81548173ffffffffffffffffffffffffffffffffffffffff021916908373ffffffffffffffffffffffffffffffffffffffff1602179055506060820151816003015560808201518160040190805190602001906111b092919061163d565b5060a0820151816005015560c08201518160060190805190602001906111d79291906116c7565b5060e08201518160070190805190602001906111f4929190611751565b5061010082015181600801559050507fb8bd0f0e3a89902311ff7a35e46f56f9bee5e4f58d0f7c59ec23fdd0033bc7c760005482336000600160405190808252806020026020018201604052801561125b5781602001602082028038833980820191505090505b506000600160405190808252806020026020018201604052801561128e5781602001602082028038833980820191505090505b5060016040519080825280602002602001820160405280156112bf5781602001602082028038833980820191505090505b506000604051808a8152602001806020018973ffffffffffffffffffffffffffffffffffffffff1673ffffffffffffffffffffffffffffffffffffffff16815260200188815260200180602001878152602001806020018060200186815260200185810385528d818151815260200191508051906020019080838360005b8381101561135857808201518184015260208101905061133d565b50505050905090810190601f1680156113855780820380516001836020036101000a031916815260200191505b5085810384528a818151815260200191508051906020019060200280838360005b838110156113c15780820151818401526020810190506113a6565b50505050905001858103835288818151815260200191508051906020019060200280838360005b838110156114035780820151818401526020810190506113e8565b50505050905001858103825287818151815260200191508051906020019060200280838360005b8381101561144557808201518184015260208101905061142a565b505050509050019d505050505050505050505050505060405180910390a150565b6001602052806000526040600020600091509050806000015490806001018054600181600116156101000203166002900480601f0160208091040260200160405190810160405280929190818152602001828054600181600116156101000203166002900480156115185780601f106114ed57610100808354040283529160200191611518565b820191906000526020600020905b8154815290600101906020018083116114fb57829003601f168201915b5050505050908060020160009054906101000a900473ffffffffffffffffffffffffffffffffffffffff16908060030154908060050154908060080154905086565b610120604051908101604052806000815260200160608152602001600073ffffffffffffffffffffffffffffffffffffffff1681526020016000815260200160608152602001600081526020016060815260200160608152602001600081525090565b828054600181600116156101000203166002900490600052602060002090601f016020900481019282601f106115fe57805160ff191683800117855561162c565b8280016001018555821561162c579182015b8281111561162b578251825591602001919060010190611610565b5b509050611639919061179e565b5090565b8280548282559060005260206000209081019282156116b6579160200282015b828111156116b55782518260006101000a81548173ffffffffffffffffffffffffffffffffffffffff021916908373ffffffffffffffffffffffffffffffffffffffff1602179055509160200191906001019061165d565b5b5090506116c391906117c3565b5090565b828054828255906000526020600020908101928215611740579160200282015b8281111561173f5782518260006101000a81548173ffffffffffffffffffffffffffffffffffffffff021916908373ffffffffffffffffffffffffffffffffffffffff160217905550916020019190600101906116e7565b5b50905061174d9190611806565b5090565b82805482825590600052602060002090810192821561178d579160200282015b8281111561178c578251825591602001919060010190611771565b5b50905061179a919061179e565b5090565b6117c091905b808211156117bc5760008160009055506001016117a4565b5090565b90565b61180391905b808211156117ff57600081816101000a81549073ffffffffffffffffffffffffffffffffffffffff0219169055506001016117c9565b5090565b90565b61184691905b8082111561184257600081816101000a81549073ffffffffffffffffffffffffffffffffffffffff02191690555060010161180c565b5090565b9056fea165627a7a72305820d96c5ce8ee3c4b17bb26f92f12dc867fe08f81a4af6b4c6f415ae458e8a044da0029",
  "source": "pragma solidity ^0.5.0;\r\n\r\ncontract Articles{\r\n\r\n    uint public articleCount=0;\r\n    mapping(uint=>Article) public articles;\r\n    struct Article{\r\n        uint id;\r\n        string articles;\r\n        address author;\r\n        uint likes;\r\n        address [] likers;\r\n        uint totalEarned;\r\n        address payable [] payers;\r\n        uint [] payed;\r\n        uint totalPayers;\r\n    }\r\n    event articleCreated(\r\n        uint id,\r\n        string articles,\r\n        address author,\r\n        uint likes,\r\n        address [] likers,\r\n        uint totalEarned,\r\n        address payable [] payers,\r\n        uint [] payed,\r\n        uint totalPayers\r\n    );\r\n    event articleLiked(\r\n        uint id,\r\n        string articles,\r\n        address author,\r\n        uint likes,\r\n        address [] likers,\r\n        uint totalEarned,\r\n        address payable [] payers,\r\n        uint [] payed,\r\n        uint totalPayers\r\n    );\r\n    event articlePayed(\r\n        uint id,\r\n        string articles,\r\n        address author,\r\n        uint likes,\r\n        address [] likers,\r\n        uint totalEarned,\r\n        address payable [] payers,\r\n        uint [] payed,\r\n        uint totalPayers\r\n    );\r\n\r\n\r\n\r\n\r\n    function createArticle(string memory _article) public {\r\n        require(bytes(_article).length>0);\r\n        articleCount++;\r\n        \r\n        articles[articleCount]=Article(articleCount,_article,msg.sender,0,new address[](1),0,new address payable [](1),new uint[](1),0);\r\n        emit articleCreated(articleCount,_article,msg.sender,0,new address[](1),0,new address payable [](1),new uint[](1),0);\r\n    }\r\n\r\n    function likeArticle(uint _id) public{\r\n        require(_id>0 && _id<=articleCount);\r\n        Article memory _article=articles[_id];\r\n        require(_article.author!=msg.sender);\r\n        address[] memory temp=new address [](_article.likes+2);\r\n        for(uint i=0;i<_article.likes;i++){\r\n            temp[i]=_article.likers[i];\r\n        }\r\n        temp[_article.likes]=msg.sender;\r\n        _article.likers=temp;\r\n        _article.likes++;\r\n        emit articleLiked(_article.id,_article.articles,_article.author,_article.likes,_article.likers,_article.totalEarned,_article.payers,_article.payed,_article.totalPayers);\r\n\r\n\r\n    }\r\n\r\n    function payAuthor(uint _id) payable public{\r\n        require(_id>0 && _id<=articleCount);\r\n        Article memory _article=articles[_id];\r\n        require(_article.author!=msg.sender);\r\n        address payable [] memory temp=new address payable[](_article.totalPayers+2);\r\n        uint [] memory temp1=new uint[](_article.totalPayers+2);\r\n\r\n        for(uint i=0;i<_article.totalPayers;i++){\r\n            temp[i]=_article.payers[i];\r\n            temp1[i]=_article.payed[i];\r\n        }\r\n        temp[_article.totalPayers]=msg.sender;\r\n        temp1[_article.totalPayers]=msg.value;\r\n        _article.payers=temp;\r\n        _article.payed=temp1;\r\n        _article.totalPayers++;\r\n        _article.totalEarned+=msg.value;\r\n        emit articlePayed(_article.id,_article.articles,_article.author,_article.likes,_article.likers,_article.totalEarned,_article.payers,_article.payed,_article.totalPayers);\r\n\r\n    }\r\n\r\n\r\n}",
  "sourcePath": "F:/dapp/articles/src/contracts/Articles.sol",
  "compiler": {
    "name": "solc",
    "version": "0.5.0+commit.1d4f565a.Emscripten.clang"
  },
  "schemaVersion": "3.0.1",
  "updatedAt": "2021-01-18T10:54:54.746Z",
  "devdoc": {
    "methods": {}
  },
  "userdoc": {
    "methods": {}
  }
}